:100000000C942A000C94831B0C94B61B0C94E91BD3
:100010000C9447000C9447000C9447000C94470044
:100020000C9447000C9447000C9447000C948219E0
:100030000C9447000C9447000C9447000C94470024
:100040000C94BD230C9447000C9447000C9447007B
:100050000C94470011241FBECFE5D8E0DEBFCDBF12
:1000600012E0A0E6B0E0EEEBF5E702C005900D92DD
:10007000AC34B107D9F712E0ACE4B2E001C01D9294
:10008000AA3AB107E1F70E94283A0C94DD3A0C94A1
:100090000000EF92FF920F931F937B018C0120E0F1
:1000A00030E040E05FE40E945A1488238CF0C801DD
:1000B000B70120E030E040E05FE40E9426120E9499
:1000C000BA149B01AC01205030404040504806C05B
:1000D000C801B7010E94BA149B01AC01B901CA0161
:1000E0001F910F91FF90EF900895A2E7B0E0EBE72A
:1000F000F0E00C94A63A982E892E712E88E0FE012D
:100100003196DF01682E1D926A94E9F729833A83BC
:100110004B835C836D837E839F829887FE01399633
:10012000DF011D928A95E9F7A986BA86CB86DC861F
:10013000ED86FE860F87188B8D819E81AF81B885F5
:10014000B7FD07C0E1961CAE1DAE1EAE1FAEE19717
:1001500064C0219581E0121608F080E0319591E0AD
:10016000131608F090E0B32FB81B81E03B1708F09E
:1001700080E0982B419531E0141608F030E0A42F70
:10018000A91B81E04A1708F080E0382B519591E0D7
:10019000151608F090E0F52FF31B81E05F1708F0CB
:1001A00080E0982B619531E0161608F030E0E62FDC
:1001B000E91B81E06E1708F080E0382B719541E073
:1001C000171608F040E0572F531B81E0751708F011
:1001D00080E0482B892D819591E0181608F090E079
:1001E000682E641A462D31E0861508F030E0932B16
:1001F000882D8195891B2983BA83AB83FC83ED838A
:100200005E834F8388872FEF3FEF4FEF5FEFE196DD
:100210002CAF3DAF4EAF5FAFE1978D859E85AF852B
:10022000B889B7FF6AC0E1964CAD5DAD6EAD7FADEC
:10023000E1974095509560957095E1964CAF5DAF14
:100240006EAF7FAFE197A19481E01A1408F080E0CF
:10025000B19491E01B1408F090E06B2D681B81E0D5
:10026000B61608F080E0982BC19421E01C1408F029
:1002700020E05C2D591B81E0C51608F080E0282B9A
:10028000D19491E01D1408F090E04D2D421B81E0C7
:10029000D41608F080E0982BE19421E01E1408F0B9
:1002A00020E03E2D391B81E0E31608F080E0282B8A
:1002B000F19491E01F1408F090E07F2D721B272F1E
:1002C00081E0F71608F080E0982B019511E01016F8
:1002D00008F010E0802F891B982F81E0091708F0A3
:1002E00080E0182B872D8195811BA9866A875B8703
:1002F0004C873D872E879F87888B99812A813B81F8
:100300004C815D816E817F81A885B9851A850B85B9
:10031000FC84ED84DE84CF84B88888E0E1E18E2E11
:10032000912C8C0E9D1EF401682E11926A94E9F7AF
:10033000998B2A8B3B8B4C8B5D8B6E8B7F8BA88F25
:100340009E01275E3F4FF90111928A95E9F7B98F17
:100350001A8F0B8FFC8EED8EDE8ECF8EB8A2298C7D
:100360003A8C4B8C5C8CED8CFE8C0F8D18A16988BF
:100370007A888B889C8821966CAE7DAE8EAE9FAEBF
:1003800021976D887E888F88988CE114F10401058F
:10039000110509F0D9C3621473048404950408F0AC
:1003A00057C100E0201600E0300601E0400600E002
:1003B000500688F41FEF211631044104510439F02E
:1003C00030F048E0E42EF12C012D112D18C0EE2460
:1003D000FF24870114C020E0221620E0320620E02E
:1003E000420621E0520630F038E1E32EF12C012DD7
:1003F000112D05C020E1E22EF12C012D112DD2018D
:10040000C1010E2C04C0B695A795979587950A94BF
:10041000D2F7875F9E4FDC012C9180E290E0A0E054
:10042000B0E08E199F09A00BB10B7C018D01E21A7F
:10043000F10801091109E114F10401051105D1F1D7
:100440000E2C04C0220C331C441C551C0A94D2F7F9
:10045000A40193010E2C04C0220F331F441F551F0B
:100460000A94D2F780E290E08E199F0921966CAC35
:100470007DAC8EAC9FAC219704C096948794779402
:1004800067948A95D2F7622A732A842A952A21963C
:10049000ACACBDACCEACDFAC219704C0AA0CBB1C8D
:1004A000CC1CDD1CEA94D2F72196ACAEBDAECEAE2C
:1004B000DFAE21976201EE24FF242996CCAEDDAE9B
:1004C000EEAEFFAE299792018101207030702D961B
:1004D0000CAF1DAF2EAF3FAF2D97C401B301A701E5
:1004E00096010E94843A7B018C01C401B3012996D4
:1004F0002CAD3DAD4EAD5FAD29970E94843AC90148
:10050000DA013C014D01C401B3012D962CAD3DAD86
:100510004EAD5FAD2D970E94323A9B01AC01870131
:10052000FF24EE242196ACACBDACCEACDFAC219761
:10053000C601AA27BB2757016801A82AB92ACA2AD7
:10054000DB2AA216B306C406D506E0F408946108B7
:10055000710881089108A20CB31CC41CD51CA214FC
:10056000B304C404D50470F0A216B306C406D506BD
:1005700048F408946108710881089108A20CB31C22
:10058000C41CD51CA21AB30AC40AD50AC601B501F7
:1005900029962CAD3DAD4EAD5FAD29970E94843AB2
:1005A0007B018C01C601B50129962CAD3DAD4EAD48
:1005B0005FAD29970E94843AC901DA015C016D019F
:1005C000C601B5012D962CAD3DAD4EAD5FAD2D975D
:1005D0000E94323A9B01AC018701FF24EE24219650
:1005E0008CAD9DADAEADBFAD2197A070B070E82AC7
:1005F000F92A0A2B1B2BE216F30604071507C0F491
:100600000894A108B108C108D108E20CF31C041D2C
:10061000151DE214F3040405150550F0E216F30667
:100620000407150728F40894A108B108C108D108E7
:10063000D3019927882786017501E82AF92A0A2B10
:100640001B2B2596ECAEFDAE0EAF1FAF2597EBC46E
:10065000211431044104510471F461E070E080E040
:1006600090E020E030E040E050E00E94843AC90190
:10067000DA011C012D0100E0201600E0300601E047
:10068000400600E0500688F41FEF211631044104B3
:10069000510431F028F048E050E060E070E017C00D
:1006A00040E050E060E070E012C020E0221620E060
:1006B000320620E0420621E0520628F048E150E0F0
:1006C00060E070E004C040E150E060E070E0D20122
:1006D000C101042E04C0B695A795979587950A94F5
:1006E000D2F7875F9E4FDC012C91E0E2EE2EF12CD9
:1006F000012D112DD801C701841B950BA60BB70B3B
:10070000821B9109A109B1090097A105B10561F406
:1007100064015301A218B308C408D50831E0632E60
:10072000712C812C912C24C1E3968FAFE397082E76
:1007300004C0220C331C441C551C0A94D2F7EE2D25
:10074000E81B640153010E2E04C0D694C794B794DD
:10075000A7940A94D2F7A4019301E3960FACE39710
:1007600004C0220F331F441F551F0A94D2F721964D
:100770006CAC7DAC8EAC9FAC21970E2E04C09694D1
:100780008794779467940A94D2F784017301E22ADC
:10079000F32A042B152BE9AEFAAE0BAF1CAF3201D6
:1007A00088249924920181012070307061960CAFE9
:1007B0001DAF2EAF3FAF6197C601B501A4019301F4
:1007C0000E94843A7B018C01C601B501A40193010A
:1007D0000E94843AC901DA0165968CAF9DAFAEAF35
:1007E000BFAF6597BC01CD0161962CAD3DAD4EAD5F
:1007F0005FAD61970E94323A9B01AC018701FF24F3
:10080000EE24A9ACBAACCBACDCACC601AA27BB27A2
:100810005C016D01AE28BF28C02AD12AA216B306FA
:10082000C406D50660F565966CAD7DAD8EAD9FAD09
:100830006597615070408040904065966CAF7DAF89
:100840008EAF9FAF6597A20CB31CC41CD51CA2141D
:10085000B304C404D50498F0A216B306C406D506A2
:1008600070F4615070408040904065966CAF7DAFF1
:100870008EAF9FAF6597A20CB31CC41CD51CA21AE7
:10088000B30AC40AD50AC601B501A40193010E94A6
:10089000843A7B018C01C601B501A40193010E9439
:1008A000843AC901DA013C014D01C401B3016196EA
:1008B0002CAD3DAD4EAD5FAD61970E94323A9B01CC
:1008C000AC018701FF24EE2489AD9AADABADBCAD80
:1008D000A070B07057016801A82AB92ACA2ADB2A79
:1008E000A216B306C406D506E0F4089461087108A0
:1008F00081089108A20CB31CC41CD51CA214B3041B
:10090000C404D50470F0A216B306C406D50648F494
:1009100008946108710881089108A20CB31CC41CDA
:10092000D51C21968CAD9DADAEADBFAD2197E396A4
:100930000FACE39704C0880F991FAA1FBB1F0A942E
:10094000D2F721968CAF9DAFAEAFBFAF2197A21A61
:10095000B30AC40AD50A6596ECACFDAC0EAD1FAD6A
:100960006597D70199278827682A792A8A2A9B2A96
:1009700082012227332769960CAF1DAF2EAF3FAF00
:100980006997A2019101407050706D962CAF3DAFF8
:100990004EAF5FAF6D97C601B50169962CAD3DAD09
:1009A0004EAD5FAD69970E94843A7B018C01C60110
:1009B000B50169962CAD3DAD4EAD5FAD69970E9416
:1009C000843AC901DA01A1968CAF9DAFAEAFBFAF3B
:1009D000A197BC01CD016D962CAD3DAD4EAD5FAD87
:1009E0006D970E94323A9B01AC018701FF24EE24EF
:1009F0002196ACACBDACCEACDFAC2197C601AA272A
:100A0000BB2757016801A82AB92ACA2ADB2AA216DD
:100A1000B306C406D50660F5A1966CAD7DAD8EAD6E
:100A20009FADA1976150704080409040A1966CAFFF
:100A30007DAF8EAF9FAFA197A20CB31CC41CD51C79
:100A4000A214B304C404D50498F0A216B306C406D5
:100A5000D50670F46150704080409040A1966CAF14
:100A60007DAF8EAF9FAFA197A20CB31CC41CD51C49
:100A7000A21AB30AC40AD50AC601B50169962CADFB
:100A80003DAD4EAD5FAD69970E94843A7B018C010C
:100A9000C601B50169962CAD3DAD4EAD5FAD699710
:100AA0000E94843AC901DA015C016D01C601B501F9
:100AB0006D962CAD3DAD4EAD5FAD6D970E94323A57
:100AC0009B01AC018701FF24EE2421968CAD9DADE6
:100AD000AEADBFAD2197A070B070E82AF92A0A2BFD
:100AE0001B2BE216F30604071507C0F40894A108AF
:100AF000B108C108D108E20CF31C041D151DE21455
:100B0000F3040405150550F0E216F3060407150773
:100B100028F40894A108B108C108D108A196ECAC4A
:100B2000FDAC0EAD1FADA197D7019927882796017F
:100B30008501082B192B2A2B3B2B25960CAF1DAFBB
:100B40002EAF3FAF259772C26E147F0480069106C8
:100B500008F45FC220E0E21620E0F20621E002077E
:100B600020E0120788F43FEFE316F10401051105B8
:100B700031F028F048E050E060E070E017C040E05D
:100B800050E060E070E012C040E0E41640E0F4069F
:100B900040E0040741E0140728F048E150E060E03D
:100BA00070E004C040E150E060E070E0D801C701AF
:100BB000042E04C0B695A795979587950A94D2F709
:100BC000875F9E4FDC012C9130E2A32EB12CC12C0B
:100BD000D12CD601C501841B950BA60BB70B821B2C
:100BE0009109A109B1090097A105B10599F4E6148D
:100BF000F7040805190508F4FEC121966CAC7DAC1C
:100C00008EAC9FAC2197621473048404950408F0A1
:100C1000F2C1FFC1E2968FAFE297082E04C0EE0C3E
:100C2000FF1C001F111F0A94D2F76A2D681BD20106
:100C3000C101062E04C0B695A795979587950A948D
:100C4000D2F75C016D01AE28BF28C02AD12AADAA17
:100C5000BEAACFAAD8AE72016101E2960FACE297AC
:100C600004C0CC0CDD1CEE1CFF1C0A94D2F7C9AAF0
:100C7000DAAAEBAAFCAA64015301062E04C0D6949A
:100C8000C794B794A7940A94D2F7D401C301E2960B
:100C90000FACE29704C0880F991FAA1FBB1F0A94CC
:100CA000D2F72196ECACFDAC0EAD1FAD219704C080
:100CB00016950795F794E7946A95D2F7370148019E
:100CC000682A792A8A2A9B2A6DA67EA68FA698AAC8
:100CD000EDA8FEA80FA918AD380188249924980121
:100CE000870120703070A5960CAF1DAF2EAF3FAFBF
:100CF000A597C601B501A40193010E94843A7B0126
:100D00008C01C601B501A40193010E94843AC90176
:100D1000DA011C012D01C201B101A5962CAD3DAD3A
:100D20004EAD5FADA5970E94323A9B01AC018701A1
:100D3000FF24EE24ADA4BEA4CFA4D8A8C601AA2740
:100D4000BB2757016801A82AB92ACA2ADB2AA2169A
:100D5000B306C406D50600F50894210831084108F9
:100D60005108EDA8FEA80FA918ADAE0CBF1CC01EFF
:100D7000D11EAE14BF04C006D10670F0A216B30691
:100D8000C406D50648F408942108310841085108E2
:100D9000AE0CBF1CC01ED11EA21AB30AC40AD50ACB
:100DA000C601B501A40193010E94843A7B018C0124
:100DB000C601B501A40193010E94843AC901DA0178
:100DC0003C014D01C401B301A5962CAD3DAD4EAD26
:100DD0005FADA5970E94323A9B01AC018701FF24C9
:100DE000EE248DA59EA5AFA5B8A9A070B07057013F
:100DF0006801A82AB92ACA2ADB2AA216B306C406A1
:100E0000D50600F5089461087108810891086DA95C
:100E10007EA98FA998ADA60EB71EC81ED91EA6160C
:100E2000B706C806D90670F0A216B306C406D506E2
:100E300048F408946108710881089108A60EB71E4D
:100E4000C81ED91ED601C501821B930BA40BB50B7E
:100E500089A79AA7ABA7BCA7D101992788276401C6
:100E60005301A82AB92ACA2ADB2A2596ACAEBDAE00
:100E7000CEAEDFAE2597860175012FEF3FEF40E044
:100E800050E0E222F32204231523A60166277727E8
:100E9000AD964CAF5DAF6EAF7FAFAD97A9A8BAA8C6
:100EA000CBA8DCA86FEF7FEF80E090E0A622B7220E
:100EB000C822D92289A99AA9ABA9BCA91D01442499
:100EC0005524C801B701A60195010E94323AA9969E
:100ED0006CAF7DAF8EAF9FAFA997C801B701A201DC
:100EE00091010E94323A3B014C01AD966CAD7DAD53
:100EF0008EAD9FADAD97A60195010E94323A7B0160
:100F00008C01AD966CAD7DAD8EAD9FADAD97A20160
:100F100091010E94323A5B016C01A8019701260DF4
:100F2000371D481D591DA9966CAC7DAC8EAC9FAC8D
:100F3000A997C401AA27BB27280F391F4A1F5B1F87
:100F40002E153F054007510748F4E12CF12C61E0D4
:100F5000062F112DAE0CBF1CC01ED11ECA01AA2720
:100F6000BB27BC01CD016A0D7B1D8C1D9D1D69A495
:100F70007AA48BA49CA4661677068806990650F17D
:100F8000661577058805990509F04DC0D90199279F
:100F90008827A9962CAD3DAD4EAD5FADA9974070A9
:100FA0005070820F931FA41FB51F21962CAD3DAD2D
:100FB0004EAD5FAD2197E2960FACE29704C0220FD1
:100FC000331F441F551F0A94D2F7281739074A07C1
:100FD0005B0748F525960CAD1DAD2EAD3FAD2597B1
:100FE000015010402040304025960CAF1DAF2EAF71
:100FF0003FAF259718C066247724430121E030E0F5
:1010000040E050E025962CAF3DAF4EAF5FAF259747
:101010000DC066247724430125961CAE1DAE1EAE7E
:101020001FAE259703C0662477244301FE01B196C5
:1010300088E0DF011D928A95E9F72596ACACBDAC3E
:10104000CEACDFAC2597A9A2BAA2CBA2DCA26DA23E
:101050007EA28FA298A622962FAD22973AA14BA1ED
:101060005CA1662D7EA1DFA098A5E196ECACFDAC5D
:101070000EAD1FADE197E114F1040105110509F46E
:1010800056C0219581E0121608F080E03195E1E02C
:10109000131608F0E0E0932E981A81E0391508F055
:1010A00080E0E82B4195F1E0141608F0F0E0A42E62
:1010B000AE1A81E04A1508F080E0F82B5195E1E086
:1010C000151608F0E0E0B52EBF1A81E05B1508F0B8
:1010D00080E0E82B6195F1E0161608F0F0E0A62F0D
:1010E000AE1B81E06A1708F080E0F82B7195E1E013
:1010F000171608F0E0E0C72ECF1A81E07C1508F043
:1011000080E0E82B8D2D8195F1E0181608F0F0E0D5
:10111000D82EDE1AE1E08D1508F0E0E0FE2B892FD5
:101120008195392DA5016A2F7C2D982F9F1B8D2D20
:10113000CE58DF4FE2E10C94C23AA7E7B0E0E3EA11
:10114000F8E00C94A63A982E892E712E88E0FE01C4
:101150003196DF01682E1D926A94E9F729833A835C
:101160004B835C836D837E839F829887FE013996D3
:10117000DF011D928A95E9F7A986BA86CB86DC86BF
:10118000ED86FE860F87188B8D819E81AF81B88595
:10119000B7FD07C0E1961CAE1DAE1EAE1FAEE197B7
:1011A00064C0219581E0121608F080E0319591E04D
:1011B000131608F090E0B32FB81B81E03B1708F03E
:1011C00080E0982B419531E0141608F030E0A42F10
:1011D000A91B81E04A1708F080E0382B519591E077
:1011E000151608F090E0F52FF31B81E05F1708F06B
:1011F00080E0982B619531E0161608F030E0E62F7C
:10120000E91B81E06E1708F080E0382B719541E012
:10121000171608F040E0572F531B81E0751708F0B0
:1012200080E0482B892D819591E0181608F090E018
:10123000682E641A462D31E0861508F030E0932BB5
:10124000882D8195891B2983BA83AB83FC83ED8329
:101250005E834F8388872FEF3FEF4FEF5FEFE1967D
:101260002CAF3DAF4EAF5FAFE1978D859E85AF85CB
:10127000B889B7FF5AC0A19481E01A1408F080E041
:10128000B19491E01B1408F090E06B2D681B81E095
:10129000B61608F080E0982BC19421E01C1408F0E9
:1012A00020E05C2D591B81E0C51608F080E0282B5A
:1012B000D19491E01D1408F090E04D2D421B81E087
:1012C000D41608F080E0982BE19421E01E1408F079
:1012D00020E03E2D391B81E0E31608F080E0282B4A
:1012E000F19491E01F1408F090E07F2D721B272FDE
:1012F00081E0F71608F080E0982B019511E01016B8
:1013000008F010E0802F891B982F81E0091708F062
:1013100080E0182B872D8195811BA9866A875B87C2
:101320004C873D872E879F87888B99812A813B81B7
:101330004C815D816E817F81A885B9851A850B8579
:10134000FC84ED84DE84CF84B88888E0E9E18E2EC9
:10135000912C8C0E9D1EF401682E11926A94E9F76F
:10136000998F2A8F3B8F4C8F5D8F6E8F7F8FA8A3B5
:101370009E012F5D3F4FF90111928A95E9F7B9A3BC
:101380001AA30BA3FCA2EDA2DEA2CFA2B8A629A0AD
:101390003AA04BA05CA0ADA0BEA0CFA0D8A4498D20
:1013A0005A8D6B8D7C8DE5964FAFE597E6965FAFD6
:1013B000E697E7966FAFE797E8967FAFE897E896EE
:1013C0006CAC7DAC8EAC9FACE8972D966CAE7DAED0
:1013D0008EAE9FAE2D978D8D9E8D2F8D38A13C01A9
:1013E000490161966CAE7DAE8EAE9FAE6197A11441
:1013F000B104C104D10409F028C362147304840445
:10140000950408F00EC100E0201600E0300601E06F
:10141000400600E0500688F41FEF21163104410415
:10142000510439F030F088E0E82EF12C012D112D17
:1014300018C0EE24FF24870114C020E0221620E00B
:10144000320620E0420621E0520630F0B8E1EB2EF1
:10145000F12C012D112D05C0A0E1EA2EF12C012D5A
:10146000112DD201C1010E2C04C0B695A7959795F8
:1014700087950A94D2F7875F9E4FDC012C9180E21A
:1014800090E0A0E0B0E08E199F09A00BB10B5C01C9
:101490006D01A21AB108C108D1086596ACAEBDAE07
:1014A000CEAEDFAE6597A114B104C104D10409F436
:1014B00045C062966FAD6297062E04C0220C331CA5
:1014C000441C551C0A94D2F7A4019301062E04C0B3
:1014D000220F331F441F551F0A94D2F780E290E079
:1014E0008A199B09E896CCACDDACEEACFFACE89772
:1014F00004C0F694E794D794C7948A95D2F78701ED
:101500007601E22AF32A042B152B6196ECAEFDAE90
:101510000EAF1FAF6197E8960CAD1DAD2EAD3FAD80
:10152000E89704C0000F111F221F331F6A95D2F7DE
:101530002D960CAF1DAF2EAF3FAF2D9732018824F3
:101540009924A20191014070507069962CAF3DAF73
:101550004EAF5FAF699761966CAD7DAD8EAD9FADBF
:101560006197A40193010E94843A7B018C016196EA
:101570006CAD7DAD8EAD9FAD6197A40193010E94CE
:10158000843ACA01B90169962CAD3DAD4EAD5FAD4F
:1015900069970E94323A9B01AC018701FF24EE2437
:1015A0002D96ACACBDACCEACDFAC2D97C601AA2756
:1015B000BB2757016801A82AB92ACA2ADB2AA21622
:1015C000B306C406D50690F4A20CB31CC41CD51CEB
:1015D000A214B304C404D50448F0A216B306C4068A
:1015E000D50620F4A20CB31CC41CD51CA21AB30A45
:1015F000C40AD50AC601B501A40193010E94843A28
:101600007B018C01C601B501A40193010E94843ABB
:10161000CA01B90169962CAD3DAD4EAD5FAD69977C
:10162000C8C1211431044104510471F461E070E037
:1016300080E090E020E030E040E050E00E94843A1A
:10164000C901DA011C012D0100E0201600E030067E
:1016500001E0400600E0500688F41FEF2116310437
:101660004104510439F030F068E0E62EF12C012DF0
:10167000112D18C0EE24FF24870114C020E022168B
:1016800020E0320620E0420621E0520630F058E128
:10169000E52EF12C012D112D05C040E1E42EF12C99
:1016A000012D112DD201C1010E2C04C0B695A795B4
:1016B000979587950A94D2F7875F9E4FDC012C910E
:1016C00030E2A32EB12CC12CD12CD601C5018E192C
:1016D0009F09A00BB10B7C018D01E21AF1080109F1
:1016E00011096596ECAEFDAE0EAF1FAF6597E11424
:1016F000F1040105110539F464015301A218B3087E
:10170000C408D508ECC06296FFAC6297E496FFAEC1
:10171000E4970F2C04C0220C331C441C551C0A9463
:10172000D2F78A2D8F1964015301082E04C0D69474
:10173000C794B794A7940A94D2F7A401930104C064
:10174000220F331F441F551FFA94D2F7E8966CAC52
:101750007DAC8EAC9FACE89704C096948794779448
:1017600067948A95D2F784017301E22AF32A042B45
:10177000152B2996ECAEFDAE0EAF1FAF29973201A7
:101780008824992492018101207030706D960CAFED
:101790001DAF2EAF3FAF6D97C601B501A4019301F8
:1017A0000E94843A7B018C01C601B501A40193011A
:1017B0000E94843ACA01B9016D962CAD3DAD4EAD83
:1017C0005FAD6D970E94323A9B01AC018701FF2407
:1017D000EE242996ACACBDACCEACDFAC2997C601EB
:1017E000AA27BB275C016D01AE28BF28C02AD12AD9
:1017F000A216B306C406D50690F4A20CB31CC41CF2
:10180000D51CA214B304C404D50448F0A216B30630
:10181000C406D50620F4A20CB31CC41CD51CA21A05
:10182000B30AC40AD50AC601B501A40193010E94F6
:10183000843A7B018C01C601B501A40193010E9489
:10184000843ACA01B9016D962CAD3DAD4EAD5FAD88
:101850006D970E94323A9B01AC018701FF24EE2470
:1018600029968CAD9DADAEADBFAD2997A070B0707F
:1018700057016801A82AB92ACA2ADB2AA216B30688
:10188000C406D50690F4A20CB31CC41CD51CA2142B
:10189000B304C404D50448F0A216B306C406D506A2
:1018A00020F4A20CB31CC41CD51CE896ECACFDAC17
:1018B0000EAD1FADE897E4960FACE49704C0EE0CB4
:1018C000FF1C001F111F0A94D2F72D96ECAEFDAE3F
:1018D0000EAF1FAF2D97A21AB30AC40AD50A320160
:1018E000882499249201810120703070A1960CAF58
:1018F0001DAF2EAF3FAFA197C601B501A401930163
:101900000E94843A7B018C01C601B501A4019301B8
:101910000E94843ACA01B901A1962CAD3DAD4EADED
:101920005FADA1970E94323A9B01AC018701FF2471
:10193000EE242D96ACACBDACCEACDFAC2D97C60181
:10194000AA27BB2757016801A82AB92ACA2ADB2A75
:10195000A216B306C406D50690F4A20CB31CC41C90
:10196000D51CA214B304C404D50448F0A216B306CF
:10197000C406D50620F4A20CB31CC41CD51CA21AA4
:10198000B30AC40AD50AC601B501A40193010E9495
:10199000843A7B018C01C601B501A40193010E9428
:1019A000843ACA01B901A1962CAD3DAD4EAD5FADF3
:1019B000A1970E94323A9B01AC018701FF24EE24DB
:1019C0002D968CAD9DADAEADBFAD2D97A070B07016
:1019D000E82AF92A0A2B1B2BE216F306040715073F
:1019E00090F4E20CF31C041D151DE214F30404052D
:1019F000150548F0E216F3060407150720F4E20C7B
:101A0000F31C041D151DE21AF30A040B150BD80173
:101A1000C70162960FAC629704C0B695A7959795DB
:101A200087950A94D2F789A79AA7ABA7BCA71DA64A
:101A30001EA61FA618AA898B8AA58A8B8BA58B8BBD
:101A40008CA58C8B8DA58D8B2FC36A147B048C0485
:101A50009D0448F4498B5A8B6B8B7C8B8D8B9E8BB2
:101A60002F8B388F27C300E0A01600E0B00601E0FE
:101A7000C00600E0D00688F41FEFA116B104C1042F
:101A8000D10439F030F028E0E22EF12C012D112D97
:101A900018C0EE24FF24870114C020E0A21620E025
:101AA000B20620E0C20621E0D20630F098E1E92E2D
:101AB000F12C012D112D05C080E1E82EF12C012D16
:101AC000112DD601C5010E2C04C0B695A79597958A
:101AD00087950A94D2F7875F9E4FDC012C9180E2B4
:101AE00090E0A0E0B0E08E199F09A00BB10B821B23
:101AF0009109A109B1090097A105B10509F059C0E3
:101B0000A614B704C804D90470F0E896ECACFDAC98
:101B10000EAD1FADE897E214F3040405150518F4A3
:101B2000D801C7012FC0E8968CAD9DADAEADBFAD5D
:101B3000E89782199309A409B509A40193012A1908
:101B40003B094C095D09AA24BB246501E8966CACED
:101B50007DAC8EAC9FACE897681679068A069B062A
:101B600028F411E0A12EB12CC12CD12C79018A01CD
:101B7000EA18FB080C091D096196ECAEFDAE0EAF2C
:101B80001FAF619789A79AA7ABA7BCA761960CADB9
:101B90001DAD2EAD3FAD61970DA71EA72FA738AB8A
:101BA000898B8AA58A8B8BA58B8B8CA58C8B0D8BB7
:101BB0007BC2E3968FAFE397A6019501082E04C080
:101BC000220F331F441F551F0A94D2F710E2181B2F
:101BD000E2961FAFE297D201C101012E04C0B69573
:101BE000A795979587950A94D2F75C016D01A22A73
:101BF000B32AC42AD52A2596ACAEBDAECEAEDFAE92
:101C0000259772016101E3960FACE39704C0CC0CF9
:101C1000DD1CEE1CFF1C0A94D2F72196CCAEDDAE83
:101C2000EEAEFFAE219764015301012E04C0D6949D
:101C3000C794B794A7940A94D2F7A4019301E396AA
:101C40000FACE39704C0220F331F441F551F0A94A3
:101C5000D2F7E8968CAD9DADAEADBFADE89704C0B0
:101C6000B695A795979587951A95D2F77C018D0122
:101C7000E22AF32A042B152BE9AEFAAE0BAF1CAF08
:101C8000E8960CAD1DAD2EAD3FADE897E3960FACD9
:101C9000E39704C0000F111F221F331F0A94D2F7CD
:101CA0000DAB1EAB2FAB38AF25962CAD3DAD4EAD79
:101CB0005FAD25973A018824992440705070A5960D
:101CC0002CAF3DAF4EAF5FAFA597C601B501A401E4
:101CD00093010E94843A7B018C01C601B501A401E5
:101CE00093010E94843AC901DA011C012D01C2014D
:101CF000B101A5962CAD3DAD4EAD5FADA5970E944F
:101D0000323A9B01AC018701FF24EE24A9ACBAACA6
:101D1000CBACDCACC601AA27BB2757016801A82AB7
:101D2000B92ACA2ADB2AA216B306C406D50610F5BC
:101D3000089421083108410851082596ECACFDAC07
:101D40000EAD1FAD2597AE0CBF1CC01ED11EAE142C
:101D5000BF04C006D10670F0A216B306C406D506AD
:101D600048F408942108310841085108AE0CBF1C02
:101D7000C01ED11EA21AB30AC40AD50AC601B501F3
:101D8000A40193010E94843A7B018C01C601B50134
:101D9000A40193010E94843AC901DA013C014D017A
:101DA000C401B301A5962CAD3DAD4EAD5FADA59779
:101DB0000E94323A9B01AC018701FF24EE2489ADD9
:101DC0009AADABADBCADA070B07057016801A82A48
:101DD000B92ACA2ADB2AA216B306C406D50610F50C
:101DE0000894610871088108910825966CAD7DAD55
:101DF0008EAD9FAD2597A60EB71EC81ED91EA6167E
:101E0000B706C806D90670F0A216B306C406D506F2
:101E100048F408946108710881089108A60EB71E5D
:101E2000C81ED91ED601C501821B930BA40BB50B8E
:101E300089AB9AABABABBCABD101992788278401A6
:101E40007301E82AF92A0A2B1B2B8FEFA82E8FEF9C
:101E5000B82EC12CD12CAE20BF20C022D1227801B7
:101E60000027112721966CAC7DAC8EAC9FAC2197DE
:101E70002FEF3FEF40E050E0622273228422952250
:101E800021966CAD7DAD8EAD9FAD2197AC016627DF
:101E90007727AD964CAF5DAF6EAF7FAFAD97C60104
:101EA000B501A40193010E94323AA9966CAF7DAFAF
:101EB0008EAF9FAFA997C601B501AD962CAD3DADD4
:101EC0004EAD5FADAD970E94323A1B012C01C801A7
:101ED000B701A40193010E94323A5B016C01C80171
:101EE000B701AD962CAD3DAD4EAD5FADAD970E9447
:101EF000323A7B018C01A6019501220D331D441D50
:101F0000551DA9966CAC7DAC8EAC9FACA997C40155
:101F1000AA27BB27280F391F4A1F5B1F2A153B051D
:101F20004C055D0548F4812C912CE1E0AE2EB12CDE
:101F3000E80CF91C0A1D1B1DCA01AA27BB27570163
:101F40006801A80EB91ECA1EDB1EA901332722276D
:101F5000A9968CAD9DADAEADBFADA997A070B07088
:101F6000280F391F4A1F5B1FE9A8FAA80BA91CA953
:101F7000EA14FB040C051D0570F0AE14BF04C00686
:101F8000D10689F56DA97EA98FA998AD621773074F
:101F90008407950740F5DA01C90121966CAC7DAC48
:101FA0008EAC9FAC219786199709A809B909259687
:101FB000ECACFDAC0EAD1FAD2597AE18BF08C00A46
:101FC000D10AEE24FF248701281739074A075B0747
:101FD00028F421E0E22EF12C012D112DAE18BF08BE
:101FE000C00AD10A02C0DA01C9016DA87EA88FA873
:101FF00098AC681A790A8A0A9B0A09A91AA92BA916
:102000003CA90A191B092C093D0958016901222420
:10201000332421012DA93EA94FA958AD2615370516
:102020004805590528F481E0282E312C412C512CEB
:1020300086017501E218F30804091509A801970142
:10204000E2960FACE29704C0220F331F441F551FC6
:102050000A94D2F7D401C301E3960FACE39704C00E
:10206000B695A795979587950A94D2F7282B392B83
:102070004A2B5B2B29A73AA74BA75CA7E3960FAC8B
:10208000E39704C016950795F794E7940A94D2F75E
:10209000EDA6FEA60FA718AB298B8AA58A8B8BA568
:1020A0008B8B8CA58C8BED8A8EA58E8B8FA58F8BC1
:1020B00088A9888FE1964CAD5DAD6EAD7FADE1979F
:1020C000411551056105710509F467C089892A899F
:1020D0003B894C895D89AE89BF89188DF82FF195B0
:1020E00091E01F1608F090E0822F819521E01816EC
:1020F00008F020E0E82FE91B91E08E1708F090E04F
:10210000292B832F819531E0181608F030E0782FC5
:10211000721B91E0871708F090E0392B842F81958E
:1021200021E0181608F020E0682F631B91E0861765
:1021300008F090E0292B852F819531E0181608F0E2
:1021400030E0582F521B91E0851708F090E0392BB2
:102150008A2F819521E0181608F020E0482F431BB4
:1021600091E0841708F090E0292B8B2F819591E066
:10217000181608F090E0382F321B21E0831708F082
:1021800020E0922B812F8195891BF98BEA8B7B8B29
:102190006C8B5D8B4E8B3F8B888F29893A894B895D
:1021A0005C896D897E898F89988DC958DF4FE2E1FE
:1021B0000C94C23AA0E0B0E0E0EEF0E10C94A63A54
:1021C000DC012B01FA019C91923008F439C1EB013A
:1021D0008881823008F433C1943069F4843009F086
:1021E0002FC111969C9111978981981709F428C1E4
:1021F000A1E0B1E025C1843009F421C18230A9F405
:10220000923009F01DC19A01AD0188E0EA01099000
:10221000AE01E90109929E018150C1F7E201898175
:1022200011969C918923818308C1923009F407C1DA
:1022300012962D903C901397EB018A819B81149606
:10224000AD90BD90CD90DC901797EC80FD800E8115
:102250001F819101281B390BB90137FF04C0662784
:102260007727621B730B603271050CF061C0121688
:1022700013066CF537014801062E04C09694879426
:10228000779467940A94D2F721E030E040E050E080
:1022900004C0220F331F441F551F6A95D2F72150E7
:1022A0003040404050402E213F21402351232115F2
:1022B00031054105510521F021E030E040E050E0DA
:1022C00079018A01E628F728082919293CC0232B1F
:1022D000D1F1260E371E35014601062E04C0969414
:1022E0008794779467940A94D2F721E030E040E035
:1022F00050E004C0220F331F441F551F6A95D2F7C8
:1023000021503040404050402A213B214C215D214A
:10231000211531054105510521F021E030E040E073
:1023200050E059016A01A628B728C828D9280BC04F
:10233000821593052CF01C01AA24BB24650103C05F
:10234000EE24FF24870111969C91D20111968C9165
:10235000981709F445C0992339F0A80197012A1963
:102360003B094C095D0906C0A60195012E193F09DC
:10237000400B510B57FD08C0118233822282248307
:102380003583468357831DC081E081833382228257
:1023900088279927DC01821B930BA40BB50B848340
:1023A0009583A683B7830DC0220F331F441F551F8B
:1023B0002483358346835783828193810197938356
:1023C00082832481358146815781DA01C9010197D1
:1023D000A109B1098F5F9F4FAF4FBF4328F30BC0D7
:1023E000918333822282EA0CFB1C0C1D1D1DE482AA
:1023F000F5820683178383E08083248135814681BB
:10240000578157FF1AC0C901AA2797FDA095BA2F77
:1024100081709070A070B07056954795379527954C
:10242000822B932BA42BB52B84839583A683B78310
:1024300082819381019693838283DF0101C0D2015F
:10244000CD01CDB7DEB7E2E10C94C23AA0E2B0E034
:10245000ECE2F2E10C94B23A69837A838B839C8339
:102460002D833E834F835887E9E0EE2EF12CEC0E4E
:10247000FD1ECE010196B7010E94AB168E010F5EC4
:102480001F4FCE010596B8010E94AB168A8991E0D4
:1024900089278A8BC701B801AE01475E5F4F0E9452
:1024A000DA100E94D615A096E6E00C94CE3AA0E28F
:1024B000B0E0EDE5F2E10C94B23A69837A838B8364
:1024C0009C832D833E834F835887F9E0EF2EF12CB8
:1024D000EC0EFD1ECE010196B7010E94AB168E01D7
:1024E0000F5E1F4FCE010596B8010E94AB16C701C3
:1024F000B801AE01475E5F4F0E94DA100E94D61508
:10250000A096E6E00C94CE3AA0E2B0E0EAE8F2E170
:102510000C94A63A69837A838B839C832D833E83B4
:102520004F835887CE010196BE01675F7F4F0E949F
:10253000AB16CE010596BE016F5E7F4F0E94AB16B3
:102540009985923088F089898230C8F0943019F4E6
:10255000823051F404C0843029F4923081F481E057
:1025600091E0C6C0923049F420E09A858A89981398
:1025700021E02A87CE010996BBC0823049F420E0D1
:102580009A858A89981321E02A8BCE014196B0C0A2
:102590002D843E844F8458886D887E888F88988CDF
:1025A000EE24FF248701AA24BB24650140E050E00B
:1025B00060E070E0E0E0F0E0C10181709070892B94
:1025C000E9F0E60CF71C081D191D9A01AB012A0D54
:1025D0003B1D4C1D5D1D80E090E0A0E0B0E0E614E6
:1025E000F7040805190520F481E090E0A0E0B0E0D0
:1025F000BA01A901480F591F6A1F7B1FAA0CBB1CF7
:10260000CC1CDD1C97FE08C081E090E0A0E0B0E0AB
:10261000A82AB92ACA2ADB2A3196E032F10549F004
:10262000660C771C881C991C569447943794279401
:10263000C3CFFA85EA892B893C898B859C85280F35
:10264000391F2E5F3F4F17C0CA0181709070892BD0
:1026500061F016950795F794E79480E090E0A0E08C
:10266000B0E8E82AF92A0A2B1B2B7695679557952F
:1026700047952F5F3F4F77FDE7CF0CC0440F551FA5
:10268000661F771F17FD4160EE0CFF1C001F111F16
:1026900021503040403090E0590790E0690790E4C5
:1026A000790760F32B8F3C8FDB01CA018F77907025
:1026B000A070B07080349105A105B10561F447FDAB
:1026C0000AC0E114F1040105110529F0405C5F4FD7
:1026D0006F4F7F4F40781A8EFE1711F081E08A8F7E
:1026E0004D8F5E8F6F8F78A383E0898FCE014996DF
:1026F0000E94D615A096E2E10C94C23AA8E1B0E09F
:10270000E4E8F3E10C94AE3A69837A838B839C838B
:102710002D833E834F835887B9E0EB2EF12CEC0ECE
:10272000FD1ECE010196B7010E94AB168E010F5E11
:102730001F4FCE010596B8010E94AB1629852230A5
:1027400008F47EC03989323010F4B8017CC08A8523
:102750009A8989278A87243011F0223031F423178F
:1027600009F06EC061E071E06EC0343039F41D864E
:102770001E861F86188A1C861B8604C0323021F4F0
:1027800084E08987B7015FC02B853C858B899C8954
:10279000281B390B3C872B87ED84FE840F85188915
:1027A000AD88BE88CF88D88CEA14FB040C051D05C3
:1027B00040F4EE0CFF1C001F111F215030403C87DD
:1027C0002B8720E030E040E050E080E090E0A0E0A7
:1027D000B0E460E070E0EA14FB040C051D0540F075
:1027E000282B392B4A2B5B2BEA18FB080C091D09F7
:1027F000B695A79597958795EE0CFF1C001F111FA6
:102800006F5F7F4F6F31710531F7DA01C9018F7743
:102810009070A070B07080349105A105B10561F48D
:1028200027FD0AC0E114F1040105110529F0205C1F
:102830003F4F4F4F5F4F20782D873E874F87588BF4
:10284000BE01675F7F4FCB010E94D6156896EAE014
:102850000C94CA3AA8E1B0E0E0E3F4E10C94B23A97
:1028600069837A838B839C832D833E834F83588730
:1028700089E0E82EF12CEC0EFD1ECE010196B70189
:102880000E94AB168E010F5E1F4FCE010596B80158
:102890000E94AB168985823040F08989823028F009
:1028A000C701B8010E94231701C08FEF6896E6E0C8
:1028B0000C94CE3AA8E1B0E0E0E6F4E10C94B23A30
:1028C00069837A838B839C832D833E834F835887D0
:1028D00089E0E82EF12CEC0EFD1ECE010196B70129
:1028E0000E94AB168E010F5E1F4FCE010596B801F8
:1028F0000E94AB168985823040F08989823028F0A9
:10290000C701B8010E94231701C08FEF6896E6E067
:102910000C94CE3AA8E1B0E0E0E9F4E10C94B23ACC
:1029200069837A838B839C832D833E834F8358876F
:1029300089E0E82EF12CEC0EFD1ECE010196B701C8
:102940000E94AB168E010F5E1F4FCE010596B80197
:102950000E94AB168985823040F08989823028F048
:10296000C701B8010E94231701C081E06896E6E024
:102970000C94CE3AACE0B0E0E0ECF4E10C94B63A62
:1029800069837A838B839C83CE010196BE016B5F42
:102990007F4F0E94AB168D81823061F1823050F101
:1029A000843021F48E81882351F12EC02F81388507
:1029B00037FD20C06E812F3131051CF06623F9F000
:1029C00023C08EE190E0821B930B29853A854B85CD
:1029D0005C8504C056954795379527958A95D2F71B
:1029E0006623B1F050954095309521953F4F4F4F5C
:1029F0005F4F0EC020E030E040E050E009C02FEF14
:102A00003FEF4FEF5FE704C020E030E040E050E8E8
:102A1000B901CA012C96E2E00C94D23AA8E0B0E0E9
:102A2000E4E1F5E10C94AE3A7B018C01611571058E
:102A30008105910519F482E0898360C083E0898370
:102A40008EE1C82ED12CDC82CB82ED82FE820F83F8
:102A50001887C801B7010E948715FC013197F7FF5D
:102A60003BC0222733272E1B3F0B57016801022E44
:102A700004C0D694C794B794A7940A94D2F740E0C0
:102A800050E060E070E081E090E0A0E0B0E004C0E1
:102A9000880F991FAA1FBB1F2A95D2F70197A1097A
:102AA000B1098E219F21A023B1230097A105B10573
:102AB00021F041E050E060E070E04A295B296C2998
:102AC0007D294D835E836F8378878EE190E08E1B36
:102AD0009F0B9C838B8312C0309781F00E2E04C015
:102AE000EE0CFF1C001F111F0A94D2F7ED82FE822C
:102AF0000F831887CE1ADF0ADC82CB821A82CE01BE
:102B000001960E94D6152896EAE00C94CA3AEF92F4
:102B1000FF920F931F937B018C0180E0E81680E009
:102B2000F80681E0080780E0180788F48FEFE816C0
:102B3000F1040105110531F028F088E090E0A0E0F3
:102B4000B0E017C080E090E0A0E0B0E012C080E00C
:102B5000E81680E0F80680E0080781E0180728F012
:102B600088E190E0A0E0B0E004C080E190E0A0E067
:102B7000B0E020E230E040E050E0281B390B4A0B87
:102B80005B0B04C016950795F794E7948A95D2F7E6
:102B9000F701E75FFE4F8081281B31094109510988
:102BA000C9011F910F91FF90EF900895DF92EF926E
:102BB000FF920F931F93FC01E480F580068117813B
:102BC000D1808081823048F480E090E0A0E1B0E0E4
:102BD000E82AF92A0A2B1B2BA5C0843009F49FC0D0
:102BE000823021F4EE24FF24870105C0E114F104B2
:102BF0000105110519F4E0E0F0E096C062817381EF
:102C00009FEF623879070CF05BC022E83FEF261B8C
:102C1000370B2A3131052CF020E030E040E050E065
:102C20002AC0B801A701022E04C076956795579572
:102C300047950A94D2F781E090E0A0E0B0E004C0AC
:102C4000880F991FAA1FBB1F2A95D2F70197A109C8
:102C5000B1098E219F21A023B1230097A105B105C1
:102C600021F081E090E0A0E0B0E09A01AB01282BD8
:102C7000392B4A2B5B2BDA01C9018F779070A0703A
:102C8000B07080349105A105B10539F427FF09C062
:102C9000205C3F4F4F4F5F4F04C0215C3F4F4F4F71
:102CA0005F4FE0E0F0E02030A0E03A07A0E04A0704
:102CB000A0E45A0710F0E1E0F0E079018A0127C0B2
:102CC0006038710564F5FB01E158FF4FD801C70179
:102CD0008F779070A070B07080349105A105B10518
:102CE00039F4E7FE0DC080E490E0A0E0B0E004C05D
:102CF0008FE390E0A0E0B0E0E80EF91E0A1F1B1F72
:102D000017FF05C016950795F794E794319687E06D
:102D100016950795F794E7948A95D1F705C0EE24A8
:102D2000FF248701EFEFF0E06E2F67956627679528
:102D3000902F9F77D794DD24D7948E2F8695492F97
:102D4000462B582F5D29B701CA011F910F91FF90A3
:102D5000EF90DF900895FC01DB01408151812281D9
:102D6000622F6F7770E0221F2227221F9381892F05
:102D7000880F822B282F30E0991F9927991F1196D1
:102D80009C93119721153105A9F541155105610550
:102D9000710511F482E037C082E89FEF13969C938F
:102DA0008E9312979A01AB0167E0220F331F441FE5
:102DB000551F6A95D1F783E08C930DC0220F331F06
:102DC000441F551F12968D919C911397019713964E
:102DD0009C938E931297203080E0380780E048075C
:102DE00080E4580758F314962D933D934D935C93CC
:102DF000179708952F3F310579F441155105610565
:102E0000710519F484E08C93089564FF03C081E098
:102E10008C9312C01C9210C02F57304013963C93D5
:102E20002E93129783E08C9387E0440F551F661F03
:102E3000771F8A95D1F7706414964D935D936D93C7
:102E40007C93179708951F93DC01FB019C919230AE
:102E500008F447C08081823008F443C0943051F4B4
:102E600011961C91843099F58181682F70E0611B67
:102E700071093FC0843021F0923031F48230B9F1D1
:102E80008181882389F12DC011961C911197823080
:102E9000F1F081811817D9F412962D913C91139776
:102EA000828193818217930794F028173907BCF029
:102EB00014968D919D910D90BC91A02D248135810A
:102EC00046815781281739074A075B0718F41123F1
:102ED00041F00AC082179307A407B50740F41123F5
:102EE00019F061E070E005C06FEF7FEF02C060E0B5
:102EF00070E0CB011F910895DF93CF93CDB7DEB77C
:102F0000A3E5B0E0E3E5F0E080818F7B8C93A3E55F
:102F1000B0E0E3E5F0E08081877F8C93A9E5B0E045
:102F2000E9E5F0E0808181608C93CF91DF91089595
:102F3000DF93CF93CDB7DEB72C970FB6F894DEBFF3
:102F40000FBECDBF69877A878B879C8780E490E02E
:102F5000A0E0B0E08D839E83AF83B88789859A8592
:102F6000AB85BC8528EE33E040E050E0BC01CD01EC
:102F70000E94323ADC01CB012D813E814F81588580
:102F8000BC01CD010E94843ADA01C90189839A8388
:102F9000AB83BC8389819A81AB81BC81892F9A2FB5
:102FA000AB2FBB2780934C0290934D02A0934E020F
:102FB000B0934F02898180935402809154028823F8
:102FC000C9F0E2E5F0E08091540281958083809120
:102FD0004C0290914D02A0914E02B0914F02019689
:102FE000A11DB11D80934C0290934D02A0934E02FF
:102FF000B0934F022C960FB6F894DEBF0FBECDBF34
:10300000CF91DF910895DF93CF9300D00F92CDB78A
:10301000DEB789838981282F30E03B832A838A8128
:103020009B81009731F02A813B8121303105B9F035
:103030002BC0A3E5B0E0E3E5F0E0808181608C93F4
:10304000A3E5B0E0E3E5F0E080818D7F8C93A3E51C
:10305000B0E0E3E5F0E0808184608C9315C0AEE4DD
:10306000B0E0EEE4F0E0808181608C93AEE4B0E00B
:10307000EEE4F0E080818D7F8C93AEE4B0E0EEE48E
:10308000F0E0808184608C930F900F900F90CF912F
:10309000DF910895DF93CF9300D00F92CDB7DEB7C5
:1030A00089838981282F30E03B832A838A819B8111
:1030B000009731F02A813B8121303105B9F02BC0D6
:1030C000A3E5B0E0E3E5F0E080818E7F8C93A3E59B
:1030D000B0E0E3E5F0E080818D7F8C93A3E5B0E084
:1030E000E3E5F0E080818B7F8C9315C0AEE4B0E027
:1030F000EEE4F0E080818E7F8C93AEE4B0E0EEE40D
:10310000F0E080818D7F8C93AEE4B0E0EEE4F0E0FF
:1031100080818B7F8C930F900F900F90CF91DF91D8
:103120000895DF93CF9300D00F92CDB7DEB7898398
:103130008981282F30E03B832A838A819B810097F5
:1031400031F02A813B8121303105A9F049C081E06D
:1031500063E040E00E94851DA3E5B0E0E3E5F0E018
:1031600080818F7E8C93A3E5B0E0E3E5F0E0808181
:1031700080628C9335C083E065E040E00E94851D4D
:10318000AFE4B0E0EFE4F0E080818E7F8C93AFE4B9
:10319000B0E0EFE4F0E0808182608C93AEE4B0E0D8
:1031A000EEE4F0E0808188608C93AEE4B0E0EEE481
:1031B000F0E0808180618C93AFE4B0E0EFE4F0E078
:1031C00080818F7B8C93AFE4B0E0EFE4F0E080810E
:1031D00080688C93E6E4F0E084E091E09183808362
:1031E0000F900F900F90CF91DF9108950F931F9341
:1031F000DF93CF93CDB7DEB727970FB6F894DEBF36
:103200000FBECDBF89834A835B836C837D838981B5
:10321000282F30E03F832E838E819F810097D9F144
:10322000EE81FF81E130F105B1F50AE410E0E6E45A
:10323000F0E080819181CC01A0E0B0E0BC01CD0143
:103240000E940E15DC01CB01BC01CD012A813B811E
:103250004C815D810E948412DC01CB01BC01CD0157
:1032600020E030E048EC52E40E947E13DC01CB0108
:10327000BC01CD0120E030E040E85FE30E9426126F
:10328000DC01CB01BC01CD010E944900DC01CB0176
:10329000F8019183808327960FB6F894DEBF0FBEA6
:1032A000CDBFCF91DF911F910F910895DF93CF9301
:1032B0000F92CDB7DEB7898389810E9403180F90E2
:1032C000CF91DF910895DF93CF930F92CDB7DEB703
:1032D000898389810E944A180F90CF91DF910895C8
:1032E000DF93CF9300D0CDB7DEB79A8389838981EE
:1032F0009A819093A4028093A3020F900F90CF9194
:10330000DF9108951F920F920FB60F9211242F9301
:103310003F934F935F936F937F938F939F93AF935D
:10332000BF93EF93FF93DF93CF93CDB7DEB7809139
:10333000550290915602A0915702B0915802019601
:10334000A11DB11D8093550290935602A093570280
:10335000B093580220915502309156024091570285
:103360005091580280914C0290914D02A0914E02D2
:10337000B0914F02281739074A075B0799F4E0918B
:10338000A302F091A40209951092550210925602E0
:103390001092570210925802E2E5F0E08091540238
:1033A00081958083CF91DF91FF91EF91BF91AF9194
:1033B0009F918F917F916F915F914F913F912F914D
:1033C0000F900FBE0F901F901895DF93CF9300D0F2
:1033D0000F92CDB7DEB789838981282F30E03B83F8
:1033E0002A838A819B818130910589F02A813B81E2
:1033F00022303105A1F08A819B810097B9F4ABE5B9
:10340000B0E0EBE5F0E0808180648C930FC0ABE529
:10341000B0E0EBE5F0E0808180688C9307C0ABE51D
:10342000B0E0EBE5F0E0808180628C930F900F902C
:103430000F90CF91DF910895DF93CF9300D00F923B
:10344000CDB7DEB789838981282F30E03B832A837B
:103450008A819B818130910589F02A813B812230CC
:103460003105A1F08A819B810097B9F4ABE5B0E00A
:10347000EBE5F0E080818F7B8C930FC0ABE5B0E093
:10348000EBE5F0E080818F778C9307C0ABE5B0E08F
:10349000EBE5F0E080818F7D8C930F900F900F9083
:1034A000CF91DF910895DF93CF93CDB7DEB7289703
:1034B0000FB6F894DEBF0FBECDBF89836A838981C2
:1034C000282F30E038872F838F81988581309105B0
:1034D000D9F02F8138852230310509F46FC08F81F2
:1034E0009885009709F093C0A5E5B0E0E5E5F0E028
:1034F00080818C7F8C93A5E5B0E0E5E5F0E09081DC
:103500008A81892B8C9383C08A81282F30E03E8367
:103510002D838D819E818130910521F12D813E8108
:10352000223031052CF48D819E81009761F046C0D8
:103530002D813E812230310521F18D819E818330A4
:10354000910571F13BC0A5E5B0E0E5E5F0E08081D3
:103550008B7F8C93A5E5B0E0E5E5F0E08081877F87
:103560008C932CC0A5E5B0E0E5E5F0E080818460B7
:103570008C93A5E5B0E0E5E5F0E08081877F8C9352
:103580001DC0A5E5B0E0E5E5F0E080818B7F8C9380
:10359000A5E5B0E0E5E5F0E0808188608C930EC0A1
:1035A000A5E5B0E0E5E5F0E0808184608C93A5E5D9
:1035B000B0E0E5E5F0E0808188608C938A81282F77
:1035C00030E03C832B838B819C8181309105F9F025
:1035D0002B813C8122303105D4F08B819C8182305B
:1035E000910531F02B813C812330310549F00FC02A
:1035F000A4E5B0E0E4E5F0E080818F7B8C9307C028
:10360000A4E5B0E0E4E5F0E0808180648C93289646
:103610000FB6F894DEBF0FBECDBFCF91DF910895F6
:10362000DF93CF9300D000D0CDB7DEB789836A8314
:103630008981282F30E03C832B838B819C818130D2
:10364000910579F02B813C812230310581F08B810D
:103650009C81009789F483E062E042E00E94851D2E
:103660000BC083E063E042E00E94851D05C081E05D
:1036700063E042E00E94851D89816A810E94531A9D
:1036800089810E94E5190F900F900F900F90CF91B4
:10369000DF910895DF93CF9300D000D00F92CDB784
:1036A000DEB789837B836A838981282F30E03D835D
:1036B0002C838C819D818130910581F02C813D810D
:1036C0002230310591F08C819D810097A1F48A818F
:1036D0009B8190935A02809359020DC08A819B81ED
:1036E00090935C0280935B0206C08A819B819093D9
:1036F0005E0280935D020F900F900F900F900F90DD
:10370000CF91DF9108951F920F920FB60F9211245F
:103710002F933F934F935F936F937F938F939F93D9
:10372000AF93BF93EF93FF93DF93CF93CDB7DEB704
:103730008091590290915A02009729F0E091590224
:10374000F0915A020995CF91DF91FF91EF91BF91CE
:10375000AF919F918F917F916F915F914F913F9129
:103760002F910F900FBE0F901F9018951F920F92E0
:103770000FB60F9211242F933F934F935F936F9344
:103780007F938F939F93AF93BF93EF93FF93DF93B9
:10379000CF93CDB7DEB780915B0290915C0200972A
:1037A00029F0E0915B02F0915C020995CF91DF91E5
:1037B000FF91EF91BF91AF919F918F917F916F9109
:1037C0005F914F913F912F910F900FBE0F901F90DF
:1037D00018951F920F920FB60F9211242F933F93BB
:1037E0004F935F936F937F938F939F93AF93BF9309
:1037F000EF93FF93DF93CF93CDB7DEB780915D0258
:1038000090915E02009729F0E0915D02F0915E02D6
:103810000995CF91DF91FF91EF91BF91AF919F916A
:103820008F917F916F915F914F913F912F910F9069
:103830000FBE0F901F901895DF93CF9300D00F927B
:10384000CDB7DEB79A8389836B83ECE3F0E08081A8
:103850008695882F90E0817090708823B1F7EEE311
:10386000F0E089819A8191838083EDE3F0E08B81A0
:103870008083ACE3B0E0ECE3F0E0808184608C9383
:10388000ACE3B0E0ECE3F0E0808182608C930F90D9
:103890000F900F90CF91DF910895DF93CF9300D0D9
:1038A000CDB7DEB79A838983ECE3F0E0808186951B
:1038B000882F90E0817090708823B1F7EEE3F0E0FC
:1038C00089819A8191838083ACE3B0E0ECE3F0E0FE
:1038D000808181608C93EDE3F0E080810F900F9008
:1038E000CF91DF910895DF93CF9300D000D00F9256
:1038F000CDB7DEB79B838A837D836C83198219825F
:1039000018C08981282F30E08A819B81A901480F46
:10391000591F8981282F30E08C819D81FC01E20FA5
:10392000F31F2081CA01622F0E941C1C89818F5FB6
:1039300089838981282F30E08C819D81FC01E20FF1
:10394000F31F80818823E9F68981282F30E08A815E
:103950009B81820F931F60E00E941C1C0F900F90B0
:103960000F900F900F90CF91DF9108950F931F93B9
:10397000DF93CF9300D000D00F92CDB7DEB79B83FB
:103980008A837D836C83198216C08981282F30E059
:103990008C819D818C01020F131F8981282F30E0BB
:1039A0008A819B81820F931F0E944D1CF8018083A6
:1039B00089818F5F89838A819B810E944D1C882326
:1039C00021F78981282F30E08C819D81FC01E20F55
:1039D000F31F10820F900F900F900F900F90CF91C8
:1039E000DF911F910F910895DF93CF9300D000D006
:1039F000CDB7DEB79A8389837C836B83ECE3F0E0F9
:103A0000808186958695882F90E0817090708823BC
:103A1000A9F7EEE3F0E089819A8191838083EDE359
:103A2000F0E08B8180832B8189819A81622F0E94B3
:103A30001C1C89819A819C012F5F3F4F8B819C8147
:103A4000892F9927482FC901642F0E941C1CACE3C1
:103A5000B0E0ECE3F0E0808184608C93ACE3B0E014
:103A6000ECE3F0E0808182608C930F900F900F90D8
:103A70000F90CF91DF910895DF93CF9300D000D0C6
:103A8000CDB7DEB79C838B831A821982ECE3F0E01A
:103A900080818695882F90E0817090708823B1F79F
:103AA000EEE3F0E08B819C8191838083ACE3B0E016
:103AB000ECE3F0E0808181608C93EDE3F0E08081C5
:103AC000882F90E09A83898389819A81982F88270B
:103AD0009A838983ACE3B0E0ECE3F0E0808181601D
:103AE0008C93EDE3F0E08081282F30E089819A818A
:103AF000822B932B9A83898389819A810F900F90CF
:103B00000F900F90CF91DF910895DF93CF93CDB7B2
:103B1000DEB72B970FB6F894DEBF0FBECDBF8983FB
:103B20006A834B838B81282F30E03B872A878A85E5
:103B30009B858130910509F47AC02A853B85223026
:103B4000310509F436C18A859B85009709F0EEC1DD
:103B50008981282F30E039872887888599858130A9
:103B6000910549F128853985223031052CF4888565
:103B70009985009761F0DAC12885398522303105B1
:103B800071F18885998583309105E9F1CFC1AAE368
:103B9000B0E0EAE3F0E08081482F8A81282F30E00E
:103BA00081E090E0022E02C0880F991F0A94E2F78C
:103BB000842B8C93BBC1A7E3B0E0E7E3F0E0808106
:103BC000482F8A81282F30E081E090E0022E02C049
:103BD000880F991F0A94E2F7842B8C93A7C1A4E362
:103BE000B0E0E4E3F0E08081482F8A81282F30E0C4
:103BF00081E090E0022E02C0880F991F0A94E2F73C
:103C0000842B8C9393C1A1E3B0E0E1E3F0E08081E9
:103C1000482F8A81282F30E081E090E0022E02C0F8
:103C2000880F991F0A94E2F7842B8C937FC18981B6
:103C3000282F30E03F832E838E819F818130910534
:103C400009F43FC02E813F81223031052CF48E8152
:103C50009F81009771F06AC12E813F81223031052A
:103C600009F457C08E819F818330910509F479C092
:103C70005DC1AAE3B0E0EAE3F0E08081482F8A81E9
:103C8000282F30E081E090E002C0880F991F2A952C
:103C9000E2F7809584238C93ABE3B0E0EBE3F0E0B4
:103CA0008081482F8A81282F30E081E090E0022E29
:103CB00002C0880F991F0A94E2F7809584238C93A1
:103CC00035C1A7E3B0E0E7E3F0E08081482F8A81C7
:103CD000282F30E081E090E002C0880F991F2A95DC
:103CE000E2F7809584238C93A8E3B0E0E8E3F0E06A
:103CF0008081482F8A81282F30E081E090E0022ED9
:103D000002C0880F991F0A94E2F7809584238C9350
:103D10000DC1A4E3B0E0E4E3F0E08081482F8A81A4
:103D2000282F30E081E090E002C0880F991F2A958B
:103D3000E2F7809584238C93A5E3B0E0E5E3F0E01F
:103D40008081482F8A81282F30E081E090E0022E88
:103D500002C0880F991F0A94E2F7809584238C9300
:103D6000E5C0A1E3B0E0E1E3F0E08081482F8A8183
:103D7000282F30E081E090E002C0880F991F2A953B
:103D8000E2F7809584238C93A2E3B0E0E2E3F0E0D5
:103D90008081482F8A81282F30E081E090E0022E38
:103DA00002C0880F991F0A94E2F7809584238C93B0
:103DB000BDC08981282F30E03D832C838C819D817B
:103DC0008130910509F43EC02C813D8122303105BE
:103DD0002CF48C819D81009771F0A8C02C813D81CD
:103DE0002230310509F455C08C819D8183309105C5
:103DF00009F476C09BC0AAE3B0E0EAE3F0E080817A
:103E0000482F8A81282F30E081E090E002C0880F9F
:103E1000991F2A95E2F7809584238C93ABE3B0E059
:103E2000EBE3F0E08081482F8A81282F30E081E0A9
:103E300090E0022E02C0880F991F0A94E2F7842BAB
:103E40008C9374C0A7E3B0E0E7E3F0E08081482FF3
:103E50008A81282F30E081E090E002C0880F991F0E
:103E60002A95E2F7809584238C93A8E3B0E0E8E3F9
:103E7000F0E08081482F8A81282F30E081E090E0B7
:103E8000022E02C0880F991F0A94E2F7842B8C93AC
:103E90004DC0A4E3B0E0E4E3F0E08081482F8A81E4
:103EA000282F30E081E090E002C0880F991F2A950A
:103EB000E2F7809584238C93A5E3B0E0E5E3F0E09E
:103EC0008081482F8A81282F30E081E090E0022E07
:103ED00002C0880F991F0A94E2F7842B8C9326C0A6
:103EE000A1E3B0E0E1E3F0E08081482F8A81282F50
:103EF00030E081E090E002C0880F991F2A95E2F738
:103F0000809584238C93A2E3B0E0E2E3F0E080812B
:103F1000482F8A81282F30E081E090E0022E02C0F5
:103F2000880F991F0A94E2F7842B8C932B960FB677
:103F3000F894DEBF0FBECDBFCF91DF910895DF9320
:103F4000CF93CDB7DEB729970FB6F894DEBF0FBE7B
:103F5000CDBF89836A834B838B81282F30E03987DB
:103F6000288788859985009739F0288539852130FB
:103F7000310509F475C0E2C08981282F30E03F8304
:103F80002E838E819F818130910559F12E813F8151
:103F9000223031052CF48E819F81009769F0CEC0CC
:103FA0002E813F812230310589F18E819F818330BE
:103FB000910509F440C0C2C0ABE3B0E0EBE3F0E030
:103FC0008081482F8A81282F30E081E090E0022E06
:103FD00002C0880F991F0A94E2F7809584238C937E
:103FE000ADC0A8E3B0E0E8E3F0E08081482F8A812B
:103FF000282F30E081E090E0022E02C0880F991F48
:104000000A94E2F7809584238C9398C0A5E3B0E0EE
:10401000E5E3F0E08081482F8A81282F30E081E0BD
:1040200090E0022E02C0880F991F0A94E2F7809553
:1040300084238C9383C0A2E3B0E0E2E3F0E08081CC
:10404000482F8A81282F30E081E090E0022E02C0C4
:10405000880F991F0A94E2F7809584238C936EC091
:104060008981282F30E03D832C838C819D81813094
:10407000910549F12C813D81223031052CF48C8150
:104080009D81009761F05AC02C813D81223031051D
:1040900071F18C819D8183309105E9F14FC0ABE3D3
:1040A000B0E0EBE3F0E08081482F8A81282F30E0F8
:1040B00081E090E0022E02C0880F991F0A94E2F777
:1040C000842B8C933BC0A8E3B0E0E8E3F0E0808170
:1040D000482F8A81282F30E081E090E0022E02C034
:1040E000880F991F0A94E2F7842B8C9327C0A5E3CD
:1040F000B0E0E5E3F0E08081482F8A81282F30E0AE
:1041000081E090E0022E02C0880F991F0A94E2F726
:10411000842B8C9313C0A2E3B0E0E2E3F0E0808153
:10412000482F8A81282F30E081E090E0022E02C0E3
:10413000880F991F0A94E2F7842B8C9329960FB667
:10414000F894DEBF0FBECDBFCF91DF910895DF930E
:10415000CF9300D000D00F92CDB7DEB78A836B83A8
:1041600019828A81282F30E03D832C834C815D8128
:104170004130510541F18C819D818230910534F4AB
:104180002C813D812115310561F052C04C815D814A
:104190004230510551F18C819D8183309105B9F1F7
:1041A00047C0E9E3F0E08081282F30E08B81882F41
:1041B00090E0A90102C0559547958A95E2F7CA019A
:1041C0008170898335C0E6E3F0E08081282F30E0FC
:1041D0008B81882F90E0A90102C0559547958A955B
:1041E000E2F7CA018170898323C0E3E3F0E08081B4
:1041F000282F30E08B81882F90E0A90102C05595CF
:1042000047958A95E2F7CA018170898311C0E0E37E
:10421000F0E08081282F30E08B81882F90E0A90189
:1042200002C0559547958A95E2F7CA018170898346
:1042300089810F900F900F900F900F90CF91DF9189
:104240000895DF93CF9300D0CDB7DEB789836A831B
:1042500089816A8141E00E949F1F0F900F90CF914A
:10426000DF910895DF93CF9300D0CDB7DEB7898378
:104270006A8389816A8140E00E949F1F0F900F909E
:10428000CF91DF910895DF93CF9300D000D0CDB7C9
:10429000DEB789836A838981282F30E03C832B83B2
:1042A0008B819C818130910549F12B813C812230A9
:1042B00031052CF48B819C81009761F05AC02B81D1
:1042C0003C812230310571F18B819C8183309105D5
:1042D000E9F14FC0ABE3B0E0EBE3F0E08081482FC1
:1042E0008A81282F30E081E090E0022E02C0880F02
:1042F000991F0A94E2F784278C933BC0A8E3B0E0AF
:10430000E8E3F0E08081482F8A81282F30E081E0C7
:1043100090E0022E02C0880F991F0A94E2F78427CA
:104320008C9327C0A5E3B0E0E5E3F0E08081482F5F
:104330008A81282F30E081E090E0022E02C0880FB1
:10434000991F0A94E2F784278C9313C0A2E3B0E08C
:10435000E2E3F0E08081482F8A81282F30E081E07D
:1043600090E0022E02C0880F991F0A94E2F784277A
:104370008C930F900F900F900F90CF91DF91089535
:10438000DF93CF9300D000D0CDB7DEB78A831982F8
:104390008A81282F30E03C832B838B819C81813064
:1043A0009105D1F02B813C81223031052CF48B8199
:1043B0009C81009761F01EC02B813C812230310529
:1043C00081F08B819C818330910581F013C0E9E3FA
:1043D000F0E0808189830EC0E6E3F0E0808189838C
:1043E00009C0E3E3F0E08081898304C0E0E3F0E00A
:1043F0008081898389810F900F900F900F90CF91CA
:10440000DF910895DF93CF9300D000D0CDB7DEB712
:1044100089836A838981282F30E03C832B838B81B9
:104420009C8181309105D1F02B813C812230310576
:104430002CF48B819C81009761F01EC02B813C8104
:104440002230310581F08B819C818330910581F090
:1044500013C0EBE3F0E08A8180830EC0E8E3F0E074
:104460008A81808309C0E5E3F0E08A81808304C00B
:10447000E2E3F0E08A8180830F900F900F900F901D
:10448000CF91DF910895DF93CF93CDB7DEB7A7E249
:10449000B0E0E7E2F0E080818F778C93A7E2B0E0B4
:1044A000E7E2F0E0808180648C93A7E2B0E0E7E28D
:1044B000F0E080818F7D8C93A6E2B0E0E6E2F0E050
:1044C000808184608C93A6E2B0E0E6E2F0E0808137
:1044D00082608C93A6E2B0E0E6E2F0E08081816049
:1044E0008C93A6E2B0E0E6E2F0E0808180688C93F5
:1044F000CF91DF910895DF93CF93CDB7DEB72897A3
:104500000FB6F894DEBF0FBECDBF8E8378876F8362
:104510001A821B821C821D82198280916802882364
:1045200009F05CC081E080936802A7E2B0E0E7E2B6
:10453000F0E08081807E8C93A7E2B0E0E7E2F0E0DB
:1045400090818E81892B8C93A6E2B0E0E6E2F0E0C8
:10455000808180648C930BC08A819B81AC81BD81FA
:104560000196A11DB11D8A839B83AC83BD83E6E2C6
:10457000F0E0808182958F70882F90E0817090703C
:10458000009761F48A819B81AC81BD81803523ECE9
:10459000920720E0A20720E0B207F1F68A819B8112
:1045A000AC81BD81803523EC920720E0A20720E09A
:1045B000B20719F481E0898313C0A6E2B0E0E6E215
:1045C000F0E0808180618C93E4E2F0E08081918171
:1045D000EF81F88580831092680202C083E08983AE
:1045E000898128960FB6F894DEBF0FBECDBFCF915C
:1045F000DF910895DF93CF9300D000D000D0CDB7E6
:10460000DEB78A837C836B835E834D8319828091BE
:1046100068028823D1F58B819C81009721F08D81E0
:104620009E81009719F482E0898331C081E08093F4
:10463000680210926A028B819C8190936002809341
:104640005F028D819E819093620280936102A7E256
:10465000B0E0E7E2F0E08081807E8C93A7E2B0E0FA
:10466000E7E2F0E090818A81892B8C93A6E2B0E0AA
:10467000E6E2F0E0808180648C93A6E2B0E0E6E2BE
:10468000F0E0808188608C9302C083E08983898117
:1046900026960FB6F894DEBF0FBECDBFCF91DF9147
:1046A0000895DF93CF9300D00F92CDB7DEB79B83F1
:1046B0008A8319828A819B81009719F482E0898319
:1046C00055C080916802882309F04EC081E0809334
:1046D000680281E080936A02EA81FB818081918196
:1046E0009093640280936302EA81FB8184818093CA
:1046F0006902EA81FB8182819381909366028093B3
:104700006502EA81FB8185819681909362028093A4
:10471000610210926702A7E2B0E0E7E2F0E0808178
:10472000807E8C93A7E2B0E0E7E2F0E04081209148
:1047300063023091640280916702882F90E0F90152
:10474000E80FF91F8081842B8C93A6E2B0E0E6E2AB
:10475000F0E0808180648C93A6E2B0E0E6E2F0E0D5
:10476000808188608C9302C083E0898389810F9067
:104770000F900F90CF91DF9108951F920F920FB677
:104780000F9211242F933F934F935F936F937F93D7
:104790008F939F93AF93BF93EF93FF93DF93CF9349
:1047A000CDB7DEB780916A028823C9F4A0915F0279
:1047B000B0916002E4E2F0E0808191818D939C935E
:1047C00010926802E0916102F09162020995A6E2FE
:1047D000B0E0E6E2F0E08081877F8C9355C0809165
:1047E0006A02813009F050C0209165023091660262
:1047F00080916702882F90E0880F991FD901A80F38
:10480000B91FE5E2F0E08081882F90E011969C933B
:104810008E93809167028F5F809367029091670209
:1048200080916902981779F410926802E091610210
:10483000F09162020995A6E2B0E0E6E2F0E0808144
:10484000877F8C9321C0A7E2B0E0E7E2F0E08081AF
:10485000807E8C93A7E2B0E0E7E2F0E04081209117
:1048600063023091640280916702882F90E0F90121
:10487000E80FF91F8081842B8C93A6E2B0E0E6E27A
:10488000F0E0808180648C93CF91DF91FF91EF9174
:10489000BF91AF919F918F917F916F915F914F9158
:1048A0003F912F910F900FBE0F901F901895DF939F
:1048B000CF930F92CDB7DEB789838981813031F4F0
:1048C00082E067E040E00E94851D08C08981823057
:1048D00029F480E067E040E00E94851D0F90CF91B1
:1048E000DF910895DF93CF930F92CDB7DEB7898321
:1048F0008981813031F482E067E041E00E949F1FAE
:1049000008C08981823029F480E067E041E00E949C
:104910009F1F0F90CF91DF910895DF93CF930F9258
:10492000CDB7DEB789838981813031F482E067E0D9
:1049300040E00E949F1F08C08981823029F480E0F6
:1049400067E040E00E949F1F0F90CF91DF91089594
:10495000DF93CF9300D0CDB7DEB789836A838A8196
:10496000882321F489810E948D2406C08A818130A8
:1049700019F489810E9472240F900F90CF91DF91DA
:104980000895DF93CF93CDB7DEB783E067E042E0D1
:104990000E94851D83E066E042E00E94851D83E061
:1049A00065E042E00E94851D83E063E042E00E94F2
:1049B000851DCF91DF910895DF93CF9300D000D074
:1049C000CDB7DEB78A838A81282F30E03C832B83E2
:1049D0008B819C8181309105D9F02B813C812230E3
:1049E00031052CF48B819C81009761F022C02B81D2
:1049F0003C812230310591F08B819C81833091057F
:104A000099F017C083E067E00E94A720898311C056
:104A100083E066E00E94A72089830BC083E065E005
:104A20000E94A720898305C083E063E00E94A7203D
:104A3000898389810F900F900F900F90CF91DF9114
:104A40000895DF93CF93CDB7DEB780E065E040E017
:104A50000E94851D80E064E040E00E94851D80E0AA
:104A600066E040E00E94851D81E067E040E00E9432
:104A7000851D80E065E040E00E949F1F80E064E0CB
:104A800040E00E949F1F80E066E040E00E949F1F80
:104A900081E067E040E00E949F1FCF91DF91089581
:104AA000DF93CF9300D00F92CDB7DEB78983898192
:104AB000282F30E03B832A838A819B8182309105B5
:104AC000D1F02A813B812330310554F48A819B81C6
:104AD000009719F12A813B812130310591F037C0CF
:104AE0008A819B818330910591F02A813B8124301A
:104AF0003105C9F02CC080E065E041E00E949F1FB5
:104B000026C080E064E041E00E949F1F20C080E05A
:104B100066E041E00E949F1F1AC081E067E041E02B
:104B20000E949F1F14C080E065E041E00E949F1F2B
:104B300080E064E041E00E949F1F80E066E041E089
:104B40000E949F1F81E067E041E00E949F1F0F903D
:104B50000F900F90CF91DF910895DF93CF9300D006
:104B60000F92CDB7DEB789838981282F30E03B8350
:104B70002A838A819B8182309105D1F02A813B81F1
:104B80002330310554F48A819B81009719F12A81E1
:104B90003B812130310591F037C08A819B81833080
:104BA000910591F02A813B8124303105C9F02CC058
:104BB00080E065E040E00E949F1F26C080E064E046
:104BC00040E00E949F1F20C080E066E040E00E941D
:104BD0009F1F1AC081E067E040E00E949F1F14C041
:104BE00080E065E040E00E949F1F80E064E040E0DC
:104BF0000E949F1F80E066E040E00E949F1F81E0CE
:104C000067E040E00E949F1F0F900F900F90CF91A0
:104C1000DF910895DF93CF9300D00F92CDB7DEB729
:104C200089838981282F30E03B832A838A819B8175
:104C300081309105D1F02A813B81223031052CF45D
:104C40008A819B810097D9F01EC02A813B81223046
:104C5000310531F08A819B818330910559F013C071
:104C600080E065E00E9443210EC080E064E00E9485
:104C7000432109C080E066E00E94432104C081E036
:104C800067E00E9443210F900F900F90CF91DF912A
:104C90000895DF93CF9300D0CDB7DEB789836A83C1
:104CA0008A81882321F489810E94AD2506C08A81EA
:104CB000813019F489810E9450250F900F90CF9177
:104CC000DF910895DF93CF930F92CDB7DEB789833D
:104CD0008981982F917081E060E0492F0E949F1F89
:104CE00089818695982F917081E061E0492F0E941B
:104CF0009F1F898186958695982F917081E062E04B
:104D0000492F0E949F1F8981869586958695982FA9
:104D1000917081E064E0492F0E949F1F0F90CF9116
:104D2000DF910895DF93CF93CDB7DEB7E9970FB644
:104D3000F894DEBF0FBECDBF89AF80E062E00E9475
:104D4000322180E063E00E94322189AD82958F702C
:104D50000E94622680E062E00E94212180E090E0D3
:104D6000A0E8BFE38DAB9EABAFABB8AF6DA97EA99A
:104D70008FA998AD20E030E04AEF54E40E948412FD
:104D8000DC01CB0189AB9AABABABBCAB69A97AA90F
:104D90008BA99CA920E030E040E85FE30E948A14E0
:104DA00088232CF481E090E098AB8FA73FC069A9DD
:104DB0007AA98BA99CA920E03FEF4FE757E40E9416
:104DC0002A1418164CF56DA97EA98FA998AD20E07C
:104DD00030E040E251E40E948412DC01CB01BC01CE
:104DE000CD010E944900DC01CB0198AB8FA70FC019
:104DF00088EC90E09EA78DA78DA59EA50197F1F761
:104E00009EA78DA78FA598A9019798AB8FA78FA56F
:104E100098A9009769F714C069A97AA98BA99CA9D8
:104E20000E944900DC01CB0198AB8FA78FA598A900
:104E30009CA78BA78BA59CA50197F1F79CA78BA797
:104E400080E062E00E94322180E090E0A0E8BFE3D1
:104E50008FA398A7A9A7BAA76FA178A589A59AA596
:104E600020E030E04AEF54E40E948412DC01CB01E0
:104E70008BA39CA3ADA3BEA36BA17CA18DA19EA17E
:104E800020E030E040E85FE30E948A1488232CF49D
:104E900081E090E09AA389A33FC06BA17CA18DA182
:104EA0009EA120E03FEF4FE757E40E942A14181616
:104EB0004CF56FA178A589A59AA520E030E040E2E5
:104EC00051E40E948412DC01CB01BC01CD010E949F
:104ED0004900DC01CB019AA389A30FC088EC90E0C4
:104EE00098A38F8F8F8D98A10197F1F798A38F8F3B
:104EF00089A19AA101979AA389A389A19AA1009750
:104F000069F714C06BA17CA18DA19EA10E944900EC
:104F1000DC01CB019AA389A389A19AA19E8F8D8FD1
:104F20008D8D9E8D0197F1F79E8F8D8F89AD0E949B
:104F3000622680E062E00E94212180E090E0A0E80B
:104F4000BFE3898F9A8FAB8FBC8F698D7A8D8B8DE4
:104F50009C8D20E030E04AEF54E40E948412DC0192
:104F6000CB018D8B9E8BAF8BB88F6D897E898F899E
:104F7000988D20E030E040E85FE30E948A148823A7
:104F80002CF481E090E09C8B8B8B3FC06D897E89F7
:104F90008F89988D20E03FEF4FE757E40E942A1455
:104FA00018164CF5698D7A8D8B8D9C8D20E030E044
:104FB00040E251E40E948412DC01CB01BC01CD012E
:104FC0000E944900DC01CB019C8B8B8B0FC088ECCD
:104FD00090E09A8B898B89899A890197F1F79A8B4E
:104FE000898B8B899C8901979C8B8B8B8B899C8966
:104FF000009769F714C06D897E898F89988D0E940A
:105000004900DC01CB019C8B8B8B8B899C89988B15
:105010008F878F8598890197F1F7988B8F8780E02C
:1050200062E00E94322180E090E0A0E8BFE38B873D
:105030009C87AD87BE876B857C858D859E8520E0AE
:1050400030E04AEF54E40E948412DC01CB018F83EC
:105050009887A987BA876F81788589859A8520E0A6
:1050600030E040E85FE30E948A1488232CF481E05A
:1050700090E09E838D833FC06F81788589859A8576
:1050800020E03FEF4FE757E40E942A1418164CF532
:105090006B857C858D859E8520E030E040E251E483
:1050A0000E948412DC01CB01BC01CD010E944900A9
:1050B000DC01CB019E838D830FC088EC90E09C8344
:1050C0008B838B819C810197F1F79C838B838D81EE
:1050D0009E8101979E838D838D819E81009769F7C4
:1050E00014C06F81788589859A850E944900DC010A
:1050F000CB019E838D838D819E819A838983898153
:105100009A810197F1F79A838983E9960FB6F8940B
:10511000DEBF0FBECDBFCF91DF910895DF93CF9358
:10512000CDB7DEB7E9970FB6F894DEBF0FBECDBF9F
:1051300089AF80E062E00E94322180E063E00E945B
:10514000212189AD82958F700E94622680E062E005
:105150000E94212180E090E0A0E8BFE38DAB9EABF0
:10516000AFABB8AF6DA97EA98FA998AD20E030E0B4
:105170004AEF54E40E948412DC01CB0189AB9AAB64
:10518000ABABBCAB69A97AA98BA99CA920E030E0A4
:1051900040E85FE30E948A1488232CF481E090E0C9
:1051A00098AB8FA73FC069A97AA98BA99CA920E0D9
:1051B0003FEF4FE757E40E942A1418164CF56DA9EB
:1051C0007EA98FA998AD20E030E040E251E40E9432
:1051D0008412DC01CB01BC01CD010E944900DC013D
:1051E000CB0198AB8FA70FC088EC90E09EA78DA74E
:1051F0008DA59EA50197F1F79EA78DA78FA598A9CC
:10520000019798AB8FA78FA598A9009769F714C04D
:1052100069A97AA98BA99CA90E944900DC01CB014C
:1052200098AB8FA78FA598A99CA78BA78BA59CA5AA
:105230000197F1F79CA78BA780E062E00E943221E2
:1052400080E090E0A0E8BFE38FA398A7A9A7BAA742
:105250006FA178A589A59AA520E030E04AEF54E433
:105260000E948412DC01CB018BA39CA3ADA3BEA33F
:105270006BA17CA18DA19EA120E030E040E85FE31E
:105280000E948A1488232CF481E090E09AA389A3D9
:105290003FC06BA17CA18DA19EA120E03FEF4FE715
:1052A00057E40E942A1418164CF56FA178A589A519
:1052B0009AA520E030E040E251E40E948412DC0133
:1052C000CB01BC01CD010E944900DC01CB019AA3B6
:1052D00089A30FC088EC90E098A38F8F8F8D98A141
:1052E0000197F1F798A38F8F89A19AA101979AA3AB
:1052F00089A389A19AA1009769F714C06BA17CA129
:105300008DA19EA10E944900DC01CB019AA389A333
:1053100089A19AA19E8F8D8F8D8D9E8D0197F1F71A
:105320009E8F8D8F89AD0E94622680E062E00E9490
:10533000212180E090E0A0E8BFE3898F9A8FAB8FB6
:10534000BC8F698D7A8D8B8D9C8D20E030E04AEF8B
:1053500054E40E948412DC01CB018D8B9E8BAF8BB9
:10536000B88F6D897E898F89988D20E030E040E884
:105370005FE30E948A1488232CF481E090E09C8BE8
:105380008B8B3FC06D897E898F89988D20E03FEFA0
:105390004FE757E40E942A1418164CF5698D7A8D50
:1053A0008B8D9C8D20E030E040E251E40E9484121D
:1053B000DC01CB01BC01CD010E944900DC01CB0125
:1053C0009C8B8B8B0FC088EC90E09A8B898B8989A2
:1053D0009A890197F1F79A8B898B8B899C89019720
:1053E0009C8B8B8B8B899C89009769F714C06D8986
:1053F0007E898F89988D0E944900DC01CB019C8BAE
:105400008B8B8B899C89988B8F878F859889019747
:10541000F1F7988B8F8780E062E00E94322180E074
:1054200090E0A0E8BFE38B879C87AD87BE876B8544
:105430007C858D859E8520E030E04AEF54E40E9413
:105440008412DC01CB018F839887A987BA876F818B
:10545000788589859A8520E030E040E85FE30E9406
:105460008A1488232CF481E090E09E838D833FC0D2
:105470006F81788589859A8520E03FEF4FE757E473
:105480000E942A1418164CF56B857C858D859E85A7
:1054900020E030E040E251E40E948412DC01CB01C4
:1054A000BC01CD010E944900DC01CB019E838D83AC
:1054B0000FC088EC90E09C838B838B819C8101974B
:1054C000F1F79C838B838D819E8101979E838D83D1
:1054D0008D819E81009769F714C06F8178858985D9
:1054E0009A850E944900DC01CB019E838D838D81CA
:1054F0009E819A83898389819A810197F1F79A83A2
:105500008983E9960FB6F894DEBF0FBECDBFCF9169
:10551000DF9108950F931F93DF93CF93CDB7DEB73D
:10552000C654D0400FB6F894DEBF0FBECDBF81E0A9
:1055300060E040E00E94851D81E061E040E00E9463
:10554000851D81E062E040E00E94851D81E064E00D
:1055500040E00E94851D80E063E040E00E94851DE0
:1055600080E062E040E00E94851DFE01ED5BFF4FA0
:1055700080E090E0A8E4B2E480839183A283B383C7
:105580008E01015C1F4FFE01ED5BFF4F6081718159
:105590008281938120E030E04AEF54E40E9484123B
:1055A000DC01CB01F80180839183A283B383FE01E8
:1055B000FF96608171818281938120E030E040E834
:1055C0005FE30E948A1488232CF481E090E09EAF70
:1055D0008DAF46C0FE01FF9660817181828193810B
:1055E00020E03FEF4FE757E40E942A14181664F5B5
:1055F000FE01ED5BFF4F608171818281938120E02C
:1056000030E040E251E40E948412DC01CB01BC0195
:10561000CD010E944900DC01CB019EAF8DAF0FC0D0
:1056200088EC90E09CAF8BAF8BAD9CAD0197F1F710
:105630009CAF8BAF8DAD9EAD01979EAF8DAF8DAD05
:105640009EAD009769F716C0FE01FF9660817181DB
:10565000828193810E944900DC01CB019EAF8DAF16
:105660008DAD9EAD9AAF89AF89AD9AAD0197F1F737
:105670009AAF89AF82E00E94922688E20E94922629
:1056800080E090E0A0E8BFE38DAB9EABAFABB8AFDE
:105690006DA97EA98FA998AD20E030E04AEF54E4CF
:1056A0000E948412DC01CB0189AB9AABABABBCABE3
:1056B00069A97AA98BA99CA920E030E040E85FE3C2
:1056C0000E948A1488232CF481E090E098AB8FA785
:1056D0003FC069A97AA98BA99CA920E03FEF4FE7B9
:1056E00057E40E942A1418164CF56DA97EA98FA9BB
:1056F00098AD20E030E040E251E40E948412DC01E9
:10570000CB01BC01CD010E944900DC01CB0198AB6B
:105710008FA70FC088EC90E09EA78DA78DA59EA5B2
:105720000197F1F79EA78DA78FA598A9019798AB30
:105730008FA78FA598A9009769F714C069A97AA9BE
:105740008BA99CA90E944900DC01CB0198AB8FA7D3
:105750008FA598A99CA78BA78BA59CA50197F1F76E
:105760009CA78BA78CE00E94922680E090E0A0E8A6
:10577000BFE38FA398A7A9A7BAA76FA178A589A50A
:105780009AA520E030E04AEF54E40E948412DC0144
:10579000CB018BA39CA3ADA3BEA36BA17CA18DA1C8
:1057A0009EA120E030E040E85FE30E948A14882355
:1057B0002CF481E090E09AA389A33FC06BA17CA167
:1057C0008DA19EA120E03FEF4FE757E40E942A14ED
:1057D00018164CF56FA178A589A59AA520E030E0B0
:1057E00040E251E40E948412DC01CB01BC01CD01F6
:1057F0000E944900DC01CB019AA389A30FC088EC69
:1058000090E098A38F8F8F8D98A10197F1F798A3BF
:105810008F8F89A19AA101979AA389A389A19AA19F
:10582000009769F714C06BA17CA18DA19EA10E9475
:105830004900DC01CB019AA389A389A19AA19E8F7B
:105840008D8F8D8D9E8D0197F1F79E8F8D8F81E0CD
:105850000E94922680E090E0A0E0B0E4898F9A8FC9
:10586000AB8FBC8F698D7A8D8B8D9C8D20E030E065
:105870004AEF54E40E948412DC01CB018D8B9E8B95
:10588000AF8BB88F6D897E898F89988D20E030E04D
:1058900040E85FE30E948A1488232CF481E090E0C2
:1058A0009C8B8B8B3FC06D897E898F89988D20E082
:1058B0003FEF4FE757E40E942A1418164CF5698D04
:1058C0007A8D8B8D9C8D20E030E040E251E40E9487
:1058D0008412DC01CB01BC01CD010E944900DC0136
:1058E000CB019C8B8B8B0FC088EC90E09A8B898BC3
:1058F00089899A890197F1F79A8B898B8B899C8981
:1059000001979C8B8B8B8B899C89009769F714C0BE
:105910006D897E898F89988D0E944900DC01CB01B9
:105920009C8B8B8B8B899C89988B8F878F85988993
:105930000197F1F7988B8F8786E00E94922680E08E
:1059400090E0A0E8BFE38B879C87AD87BE876B851F
:105950007C858D859E8520E030E04AEF54E40E94EE
:105960008412DC01CB018F839887A987BA876F8166
:10597000788589859A8520E030E040E85FE30E94E1
:105980008A1488232CF481E090E09E838D833FC0AD
:105990006F81788589859A8520E03FEF4FE757E44E
:1059A0000E942A1418164CF56B857C858D859E8582
:1059B00020E030E040E251E40E948412DC01CB019F
:1059C000BC01CD010E944900DC01CB019E838D8387
:1059D0000FC088EC90E09C838B838B819C81019726
:1059E000F1F79C838B838D819E8101979E838D83AC
:1059F0008D819E81009769F714C06F8178858985B4
:105A00009A850E944900DC01CB019E838D838D81A4
:105A10009E819A83898389819A810197F1F79A837C
:105A20008983CA5BDF4F0FB6F894DEBF0FBECDBFD0
:105A3000CF91DF911F910F910895DF93CF93CDB751
:105A4000DEB72E970FB6F894DEBF0FBECDBF81E054
:105A50000E94922680E090E0A0E0B0E48B879C87D3
:105A6000AD87BE876B857C858D859E8520E030E087
:105A70004AEF54E40E948412DC01CB018F839887A3
:105A8000A987BA876F81788589859A8520E030E07B
:105A900040E85FE30E948A1488232CF481E090E0C0
:105AA0009E838D833FC06F81788589859A8520E0AC
:105AB0003FEF4FE757E40E942A1418164CF56B8508
:105AC0007C858D859E8520E030E040E251E40E9497
:105AD0008412DC01CB01BC01CD010E944900DC0134
