S00C00004E5449322E73726563FB
S11300000C942A000C94F8020C9421030C944A03D7
S11300100C9447000C9447000C9447000C94470040
S11300200C9447000C9447000C9447000C94730301
S11300300C9447000C9447000C9447000C94470020
S11300400C9465010C9447000C9447000C944700F1
S11300500C94470011241FBECFE5D8E0DEBFCDBF0E
S113006010E0A0E6B0E0E8EAF7E002C005900D92E7
S1130070A036B107D9F720E0A0E6B0E001C01D9298
S1130080AE37B207E1F70E945C010C94D2030C94E2
S11300900000CF93C82F482F417060E081E00E9498
S11300A0B502C1FB442740F961E081E00E94B5023A
S11300B0C2FB442740F962E081E00E94B502C3FB21
S11300C0442740F964E081E0CF910C94B502CF93CA
S11300D0C82F62E080E00E94EF0263E080E00E94AB
S11300E0EF028C2F82958F700E94490062E080E0BD
S11300F00E94EC028FE99FE00197F1F700C0000035
S113010062E080E00E94EF028FE99FE00197F1F73F
S113011000C000008C2F0E94490062E080E00E9431
S1130120EC028FE99FE00197F1F700C0000062E064
S113013080E00E94EF028FE99FE00197F1F700C091
S11301400000CF910895CF93C82F62E080E00E9411
S1130150EF0263E080E00E94EC028C2F82958F70A6
S11301600E94490062E080E00E94EC028FE99FE077
S11301700197F1F700C0000062E080E00E94EF0206
S11301808FE99FE00197F1F700C000008C2F0E94D7
S1130190490062E080E00E94EC028FE99FE0019751
S11301A0F1F700C0000062E080E00E94EF028FE9F6
S11301B09FE00197F1F700C00000CF91089540E05F
S11301C060E081E00E94FA0140E061E081E00E9489
S11301D0FA0140E062E081E00E94FA0140E064E05C
S11301E081E00E94FA0140E063E080E00E94FA01AD
S11301F040E062E080E00E94FA012FEF80E792E0A5
S1130200215080409040E1F700C0000082E00E944D
S1130210670088E20E9467008FE99FE00197F1F789
S113022000C000008CE00E9467008FE99FE0019706
S1130230F1F700C0000081E00E9467008FE39FE1B6
S11302400197F1F700C0000086E00E9467008FE983
S11302509FE00197F1F700C000000895CF93DF936A
S1130260D82FC62F813049F030F0823041F08330EE
S113027051F484ED05C080E803C080EC01C084E93A
S11302808C0F0E94670084E1D89FC00D1124C09395
S11302906000DF91CF9108950E94A30080916000D7
S11302A08F5F8093600064E10E94C603911103C0D4
S11302B060E00C942E0108950E94DF0084E190E038
S11302C00E94F1020E944C01FFCF1F920F920FB6C1
S11302D00F9211242F933F934F935F936F937F93C8
S11302E08F939F93AF93BF93EF93FF93809162009B
S11302F0811109C084B195B1E0916B00F0916C005B
S11303009183808319C0813081F58091630025B188
S11303103091640090916500E32FF92FE80FF11DEF
S1130320E80FF11D30E0318320838F5F80936300F9
S113033090916600891309C010926100E0916900F0
S1130340F0916A000995339810C087B1807E87B90F
S113035097B180916300E0916700F0916800E80F25
S1130360F11D8081892B87B9369AFF91EF91BF9156
S1130370AF919F918F917F916F915F914F913F9139
S11303802F910F900FBE0F901F901895813089F018
S113039028F08230C9F0833011F108952BB381E045
S11303A090E001C0880F6A95EAF7809582238BBBA1
S11303B0089528B381E090E001C0880F6A95EAF7B8
S11303C08095822388BB089525B381E090E001C025
S11303D0880F6A95EAF78095822385BB089522B336
S11303E081E090E001C0880F6A95EAF78095822346
S11303F082BB08954130A9F120F0423009F471C064
S11304000895813081F028F08230B9F08330F9F01A
S113041008952AB381E090E001C0880F6A95EAF755
S1130420822B8ABB089527B381E090E001C0880F36
S11304306A95EAF7822B87BB089524B381E090E0A4
S113044001C0880F6A95EAF7822B84BB089521B313
S113045081E090E001C0880F6A95EAF7822B81BBA6
S113046008958130A1F028F08230F9F0833059F1F9
S113047008952AB381E090E001C0880F6A95EAF7F5
S11304808095922F98239ABB9BB389233FC027B3AF
S113049081E090E001C0880F6A95EAF78095922F79
S11304A0982397BB98B3892340C024B381E090E09C
S11304B001C0880F6A95EAF78095922F982394BB20
S11304C095B3892341C021B381E090E001C0880F36
S11304D06A95EAF78095922F982391BB92B389236A
S11304E042C08130A9F028F0823009F1833071F1E3
S11304F008952AB381E090E001C0880F6A95EAF775
S1130500982F909592239ABB9BB3892B8BBB08950C
S113051027B381E090E001C0880F6A95EAF7982F2D
S11305209095922397BB98B3892B88BB089524B3E5
S113053081E090E001C0880F6A95EAF7982F9095C2
S1130540922394BB95B3892B85BB089521B381E095
S113055090E001C0880F6A95EAF7982F909592234E
S113056091BB92B3892B82BB0895442319F0413087
S113057019F008950C94C601813081F028F082307E
S1130580B9F08330F9F008952BB381E090E001C015
S1130590880F6A95EAF7822B8BBB089528B381E014
S11305A090E001C0880F6A95EAF7822B88BB089512
S11305B025B381E090E001C0880F6A95EAF7822BA9
S11305C085BB089522B381E090E001C0880F6A954D
S11305D0EAF7822B82BB089541E00C94B5020C9497
S11305E0C601E199FECF9FBB8EBBE09A8DB30895FF
S11305F01F920F920FB60F9211242F933F934F9394
S11306005F936F937F938F939F93AF93BF93EF9376
S1130610FF93E0917100F0917200309709F0099511
S1130620FF91EF91BF91AF919F918F917F916F91C6
S11306305F914F913F912F910F900FBE0F901F909C
S113064018951F920F920FB60F9211242F933F9378
S11306504F935F936F937F938F939F93AF93BF93C6
S1130660EF93FF93E0916F00F0917000309709F0E1
S11306700995FF91EF91BF91AF919F918F917F91D8
S11306806F915F914F913F912F910F900FBE0F90FB
S11306901F9018951F920F920FB60F9211242F934B
S11306A03F934F935F936F937F938F939F93AF93F6
S11306B0BF93EF93FF93E0916D00F0916E0030973C
S11306C009F00995FF91EF91BF91AF919F918F919F
S11306D07F916F915F914F913F912F910F900FBE3A
S11306E00F901F9018951F920F920FB60F9211241E
S11306F02F933F934F935F936F937F938F939F9326
S1130700AF93BF93EF93FF93809173009091740024
S1130710A0917500B09176000196A11DB11D809342
S1130720730090937400A0937500B0937600409189
S113073078005091790060917A0070917B00841761
S11307409507A607B70789F4E0917C00F0917D0036
S11307500995109273001092740010927500109213
S1130760760080917700819582BFFF91EF91BF91D0
S1130770AF919F918F917F916F915F914F913F9135
S11307802F910F900FBE0F901F901895991B79E031
S113079004C0991F961708F0961B881F7A95C9F70D
S10B07A080950895F894FFCF41
S9030000FC
